{
  "address": "0xe61F08AB2D5eD8ac49334d674B88420d7Eab4010",
  "abi": [
    {
      "anonymous": false,
      "inputs": [],
      "name": "EIP712DomainChanged",
      "type": "event"
    },
    {
      "anonymous": false,
      "inputs": [
        {
          "indexed": false,
          "internalType": "uint8",
          "name": "version",
          "type": "uint8"
        }
      ],
      "name": "Initialized",
      "type": "event"
    },
    {
      "anonymous": false,
      "inputs": [
        {
          "indexed": true,
          "internalType": "address",
          "name": "previousOwner",
          "type": "address"
        },
        {
          "indexed": true,
          "internalType": "address",
          "name": "newOwner",
          "type": "address"
        }
      ],
      "name": "OwnershipTransferred",
      "type": "event"
    },
    {
      "inputs": [],
      "name": "eip712Domain",
      "outputs": [
        {
          "internalType": "bytes1",
          "name": "fields",
          "type": "bytes1"
        },
        {
          "internalType": "string",
          "name": "name",
          "type": "string"
        },
        {
          "internalType": "string",
          "name": "version",
          "type": "string"
        },
        {
          "internalType": "uint256",
          "name": "chainId",
          "type": "uint256"
        },
        {
          "internalType": "address",
          "name": "verifyingContract",
          "type": "address"
        },
        {
          "internalType": "bytes32",
          "name": "salt",
          "type": "bytes32"
        },
        {
          "internalType": "uint256[]",
          "name": "extensions",
          "type": "uint256[]"
        }
      ],
      "stateMutability": "view",
      "type": "function"
    },
    {
      "inputs": [],
      "name": "initialize",
      "outputs": [],
      "stateMutability": "nonpayable",
      "type": "function"
    },
    {
      "inputs": [],
      "name": "owner",
      "outputs": [
        {
          "internalType": "address",
          "name": "",
          "type": "address"
        }
      ],
      "stateMutability": "view",
      "type": "function"
    },
    {
      "inputs": [],
      "name": "renounceOwnership",
      "outputs": [],
      "stateMutability": "nonpayable",
      "type": "function"
    },
    {
      "inputs": [
        {
          "internalType": "uint256",
          "name": "",
          "type": "uint256"
        }
      ],
      "name": "requests",
      "outputs": [
        {
          "internalType": "uint256",
          "name": "id",
          "type": "uint256"
        },
        {
          "internalType": "address",
          "name": "recipient",
          "type": "address"
        },
        {
          "internalType": "uint256",
          "name": "value",
          "type": "uint256"
        },
        {
          "internalType": "address",
          "name": "token_address",
          "type": "address"
        },
        {
          "internalType": "enum Sendit.RequestStatus",
          "name": "status",
          "type": "uint8"
        }
      ],
      "stateMutability": "view",
      "type": "function"
    },
    {
      "inputs": [
        {
          "internalType": "uint256",
          "name": "_id",
          "type": "uint256"
        },
        {
          "internalType": "address",
          "name": "_recipient",
          "type": "address"
        },
        {
          "internalType": "uint256",
          "name": "_value",
          "type": "uint256"
        },
        {
          "internalType": "address",
          "name": "_token_address",
          "type": "address"
        },
        {
          "internalType": "uint8",
          "name": "v",
          "type": "uint8"
        },
        {
          "internalType": "bytes32",
          "name": "r",
          "type": "bytes32"
        },
        {
          "internalType": "bytes32",
          "name": "s",
          "type": "bytes32"
        }
      ],
      "name": "send",
      "outputs": [],
      "stateMutability": "nonpayable",
      "type": "function"
    },
    {
      "inputs": [
        {
          "internalType": "address",
          "name": "newOwner",
          "type": "address"
        }
      ],
      "name": "transferOwnership",
      "outputs": [],
      "stateMutability": "nonpayable",
      "type": "function"
    }
  ],
  "args": [],
  "numDeployments": 1,
  "solcInputHash": "13a4bcad6f9085bd25d71836ac3cac8c",
  "bytecode": "0x608060405234801561001057600080fd5b5061206d806100206000396000f3fe608060405234801561001057600080fd5b506004361061007d5760003560e01c806381d12c581161005b57806381d12c58146100b257806384b0196e146100e65780638da5cb5b1461010a578063f2fde38b146101285761007d565b80631edf673514610082578063715018a61461009e5780638129fc1c146100a8575b600080fd5b61009c60048036038101906100979190611333565b610144565b005b6100a66107ad565b005b6100b06107c1565b005b6100cc60048036038101906100c791906113d5565b610973565b6040516100dd959493929190611497565b60405180910390f35b6100ee6109f6565b604051610101979695949392919061168b565b60405180910390f35b610112610af7565b60405161011f919061170f565b60405180910390f35b610142600480360381019061013d919061172a565b610b21565b005b866099600089815260200190815260200160002060000154141561019d576040517f08c379a0000000000000000000000000000000000000000000000000000000008152600401610194906117a3565b60405180910390fd5b600073ffffffffffffffffffffffffffffffffffffffff168673ffffffffffffffffffffffffffffffffffffffff16141561020d576040517f08c379a00000000000000000000000000000000000000000000000000000000081526004016102049061180f565b60405180910390fd5b60008511610250576040517f08c379a00000000000000000000000000000000000000000000000000000000081526004016102479061187b565b60405180910390fd5b600073ffffffffffffffffffffffffffffffffffffffff168473ffffffffffffffffffffffffffffffffffffffff1614156102c0576040517f08c379a00000000000000000000000000000000000000000000000000000000081526004016102b7906118e7565b60405180910390fd5b6002808111156102d3576102d2611420565b5b6099600089815260200190815260200160002060030160149054906101000a900460ff16600281111561030957610308611420565b5b141561034a576040517f08c379a000000000000000000000000000000000000000000000000000000000815260040161034190611953565b60405180910390fd5b6001600281111561035e5761035d611420565b5b6099600089815260200190815260200160002060030160149054906101000a900460ff16600281111561039457610393611420565b5b14156103d5576040517f08c379a00000000000000000000000000000000000000000000000000000000081526004016103cc906119bf565b60405180910390fd5b600060028111156103e9576103e8611420565b5b6099600089815260200190815260200160002060030160149054906101000a900460ff16600281111561041f5761041e611420565b5b1461045f576040517f08c379a000000000000000000000000000000000000000000000000000000000815260040161045690611a2b565b60405180910390fd5b60006104b87f6fe67134ed4d3a8c8452403fc0a556eb64017e7c1246eaebf801a740361f1c118989898960405160200161049d959493929190611a4b565b60405160208183030381529060405280519060200120610ba5565b90506000600182868686604051600081526020016040526040516104df9493929190611aad565b6020604051602081039080840390855afa158015610501573d6000803e3d6000fd5b5050506020604051035190508773ffffffffffffffffffffffffffffffffffffffff168173ffffffffffffffffffffffffffffffffffffffff161461057b576040517f08c379a000000000000000000000000000000000000000000000000000000000815260040161057290611b3e565b60405180910390fd5b600086905060008173ffffffffffffffffffffffffffffffffffffffff166323b872dd338c8c6040518463ffffffff1660e01b81526004016105bf93929190611b5e565b602060405180830381600087803b1580156105d957600080fd5b505af11580156105ed573d6000803e3d6000fd5b505050506040513d601f19601f820116820180604052508101906106119190611bcd565b905080610653576040517f08c379a000000000000000000000000000000000000000000000000000000000815260040161064a90611c46565b60405180910390fd5b6040518060a001604052808c81526020018b73ffffffffffffffffffffffffffffffffffffffff1681526020018a81526020018973ffffffffffffffffffffffffffffffffffffffff1681526020016002808111156106b5576106b4611420565b5b815250609960008d81526020019081526020016000206000820151816000015560208201518160010160006101000a81548173ffffffffffffffffffffffffffffffffffffffff021916908373ffffffffffffffffffffffffffffffffffffffff1602179055506040820151816002015560608201518160030160006101000a81548173ffffffffffffffffffffffffffffffffffffffff021916908373ffffffffffffffffffffffffffffffffffffffff16021790555060808201518160030160146101000a81548160ff0219169083600281111561079857610797611420565b5b02179055509050505050505050505050505050565b6107b5610bbf565b6107bf6000610c3d565b565b60008060019054906101000a900460ff161590508080156107f25750600160008054906101000a900460ff1660ff16105b8061081f575061080130610d03565b15801561081e5750600160008054906101000a900460ff1660ff16145b5b61085e576040517f08c379a000000000000000000000000000000000000000000000000000000000815260040161085590611cd8565b60405180910390fd5b60016000806101000a81548160ff021916908360ff160217905550801561089b576001600060016101000a81548160ff0219169083151502179055505b6108a3610d26565b6109176040518060400160405280600681526020017f53656e64697400000000000000000000000000000000000000000000000000008152506040518060400160405280600581526020017f302e302e31000000000000000000000000000000000000000000000000000000815250610d7f565b80156109705760008060016101000a81548160ff0219169083151502179055507f7f26b83ff96e1f2b6a682f133852f6798a09c465da95921460cefb384740249860016040516109679190611d3d565b60405180910390a15b50565b60996020528060005260406000206000915090508060000154908060010160009054906101000a900473ffffffffffffffffffffffffffffffffffffffff16908060020154908060030160009054906101000a900473ffffffffffffffffffffffffffffffffffffffff16908060030160149054906101000a900460ff16905085565b6000606080600080600060606000801b606554148015610a1a57506000801b606654145b610a59576040517f08c379a0000000000000000000000000000000000000000000000000000000008152600401610a5090611da4565b60405180910390fd5b610a61610ddc565b610a69610e6e565b46306000801b600067ffffffffffffffff811115610a8a57610a89611dc4565b5b604051908082528060200260200182016040528015610ab85781602001602082028036833780820191505090505b507f0f00000000000000000000000000000000000000000000000000000000000000959493929190965096509650965096509650965090919293949596565b6000603360009054906101000a900473ffffffffffffffffffffffffffffffffffffffff16905090565b610b29610bbf565b600073ffffffffffffffffffffffffffffffffffffffff168173ffffffffffffffffffffffffffffffffffffffff161415610b99576040517f08c379a0000000000000000000000000000000000000000000000000000000008152600401610b9090611e65565b60405180910390fd5b610ba281610c3d565b50565b6000610bb8610bb2610f00565b83610f0f565b9050919050565b610bc7610f50565b73ffffffffffffffffffffffffffffffffffffffff16610be5610af7565b73ffffffffffffffffffffffffffffffffffffffff1614610c3b576040517f08c379a0000000000000000000000000000000000000000000000000000000008152600401610c3290611ed1565b60405180910390fd5b565b6000603360009054906101000a900473ffffffffffffffffffffffffffffffffffffffff16905081603360006101000a81548173ffffffffffffffffffffffffffffffffffffffff021916908373ffffffffffffffffffffffffffffffffffffffff1602179055508173ffffffffffffffffffffffffffffffffffffffff168173ffffffffffffffffffffffffffffffffffffffff167f8be0079c531659141344cd1fd0a4f28419497f9722a3daafe3b4186f6b6457e060405160405180910390a35050565b6000808273ffffffffffffffffffffffffffffffffffffffff163b119050919050565b600060019054906101000a900460ff16610d75576040517f08c379a0000000000000000000000000000000000000000000000000000000008152600401610d6c90611f63565b60405180910390fd5b610d7d610f58565b565b600060019054906101000a900460ff16610dce576040517f08c379a0000000000000000000000000000000000000000000000000000000008152600401610dc590611f63565b60405180910390fd5b610dd88282610fb9565b5050565b606060678054610deb90611fb2565b80601f0160208091040260200160405190810160405280929190818152602001828054610e1790611fb2565b8015610e645780601f10610e3957610100808354040283529160200191610e64565b820191906000526020600020905b815481529060010190602001808311610e4757829003601f168201915b5050505050905090565b606060688054610e7d90611fb2565b80601f0160208091040260200160405190810160405280929190818152602001828054610ea990611fb2565b8015610ef65780601f10610ecb57610100808354040283529160200191610ef6565b820191906000526020600020905b815481529060010190602001808311610ed957829003601f168201915b5050505050905090565b6000610f0a61104e565b905090565b60006040517f190100000000000000000000000000000000000000000000000000000000000081528360028201528260228201526042812091505092915050565b600033905090565b600060019054906101000a900460ff16610fa7576040517f08c379a0000000000000000000000000000000000000000000000000000000008152600401610f9e90611f63565b60405180910390fd5b610fb7610fb2610f50565b610c3d565b565b600060019054906101000a900460ff16611008576040517f08c379a0000000000000000000000000000000000000000000000000000000008152600401610fff90611f63565b60405180910390fd5b816067908051906020019061101e929190611188565b508060689080519060200190611035929190611188565b506000801b6065819055506000801b6066819055505050565b60007f8b73c3c69bb8fe3d512ecc4cf759cc79239f7b179b0ffacaa9a75d522b39400f6110796110b2565b61108161111d565b4630604051602001611097959493929190611fe4565b60405160208183030381529060405280519060200120905090565b6000806110bd610ddc565b90506000815111156110d957808051906020012091505061111a565b600060655490506000801b81146110f457809250505061111a565b7fc5d2460186f7233c927e7db2dcc703c0e500b653ca82273b7bfad8045d85a470925050505b90565b600080611128610e6e565b9050600081511115611144578080519060200120915050611185565b600060665490506000801b811461115f578092505050611185565b7fc5d2460186f7233c927e7db2dcc703c0e500b653ca82273b7bfad8045d85a470925050505b90565b82805461119490611fb2565b90600052602060002090601f0160209004810192826111b657600085556111fd565b82601f106111cf57805160ff19168380011785556111fd565b828001600101855582156111fd579182015b828111156111fc5782518255916020019190600101906111e1565b5b50905061120a919061120e565b5090565b5b8082111561122757600081600090555060010161120f565b5090565b600080fd5b6000819050919050565b61124381611230565b811461124e57600080fd5b50565b6000813590506112608161123a565b92915050565b600073ffffffffffffffffffffffffffffffffffffffff82169050919050565b600061129182611266565b9050919050565b6112a181611286565b81146112ac57600080fd5b50565b6000813590506112be81611298565b92915050565b600060ff82169050919050565b6112da816112c4565b81146112e557600080fd5b50565b6000813590506112f7816112d1565b92915050565b6000819050919050565b611310816112fd565b811461131b57600080fd5b50565b60008135905061132d81611307565b92915050565b600080600080600080600060e0888a0312156113525761135161122b565b5b60006113608a828b01611251565b97505060206113718a828b016112af565b96505060406113828a828b01611251565b95505060606113938a828b016112af565b94505060806113a48a828b016112e8565b93505060a06113b58a828b0161131e565b92505060c06113c68a828b0161131e565b91505092959891949750929550565b6000602082840312156113eb576113ea61122b565b5b60006113f984828501611251565b91505092915050565b61140b81611230565b82525050565b61141a81611286565b82525050565b7f4e487b7100000000000000000000000000000000000000000000000000000000600052602160045260246000fd5b600381106114605761145f611420565b5b50565b60008190506114718261144f565b919050565b600061148182611463565b9050919050565b61149181611476565b82525050565b600060a0820190506114ac6000830188611402565b6114b96020830187611411565b6114c66040830186611402565b6114d36060830185611411565b6114e06080830184611488565b9695505050505050565b60007fff0000000000000000000000000000000000000000000000000000000000000082169050919050565b61151f816114ea565b82525050565b600081519050919050565b600082825260208201905092915050565b60005b8381101561155f578082015181840152602081019050611544565b8381111561156e576000848401525b50505050565b6000601f19601f8301169050919050565b600061159082611525565b61159a8185611530565b93506115aa818560208601611541565b6115b381611574565b840191505092915050565b6115c7816112fd565b82525050565b600081519050919050565b600082825260208201905092915050565b6000819050602082019050919050565b61160281611230565b82525050565b600061161483836115f9565b60208301905092915050565b6000602082019050919050565b6000611638826115cd565b61164281856115d8565b935061164d836115e9565b8060005b8381101561167e5781516116658882611608565b975061167083611620565b925050600181019050611651565b5085935050505092915050565b600060e0820190506116a0600083018a611516565b81810360208301526116b28189611585565b905081810360408301526116c68188611585565b90506116d56060830187611402565b6116e26080830186611411565b6116ef60a08301856115be565b81810360c0830152611701818461162d565b905098975050505050505050565b60006020820190506117246000830184611411565b92915050565b6000602082840312156117405761173f61122b565b5b600061174e848285016112af565b91505092915050565b7f53656e6469743a207265717565737420616c7265616479206578697374730000600082015250565b600061178d601e83611530565b915061179882611757565b602082019050919050565b600060208201905081810360008301526117bc81611780565b9050919050565b7f53656e6469743a20696e76616c696420726563697069656e7400000000000000600082015250565b60006117f9601983611530565b9150611804826117c3565b602082019050919050565b60006020820190508181036000830152611828816117ec565b9050919050565b7f53656e6469743a20696e76616c69642076616c75650000000000000000000000600082015250565b6000611865601583611530565b91506118708261182f565b602082019050919050565b6000602082019050818103600083015261189481611858565b9050919050565b7f53656e6469743a20696e76616c696420746f6b656e2061646472657373000000600082015250565b60006118d1601d83611530565b91506118dc8261189b565b602082019050919050565b60006020820190508181036000830152611900816118c4565b9050919050565b7f53656e6469743a207265717565737420697320636f6d706c6574656400000000600082015250565b600061193d601c83611530565b915061194882611907565b602082019050919050565b6000602082019050818103600083015261196c81611930565b9050919050565b7f53656e6469743a20726571756573742069732072656a65637465640000000000600082015250565b60006119a9601b83611530565b91506119b482611973565b602082019050919050565b600060208201905081810360008301526119d88161199c565b9050919050565b7f53656e6469743a2072657175657374206973206e6f74206f70656e0000000000600082015250565b6000611a15601b83611530565b9150611a20826119df565b602082019050919050565b60006020820190508181036000830152611a4481611a08565b9050919050565b600060a082019050611a6060008301886115be565b611a6d6020830187611402565b611a7a6040830186611411565b611a876060830185611402565b611a946080830184611411565b9695505050505050565b611aa7816112c4565b82525050565b6000608082019050611ac260008301876115be565b611acf6020830186611a9e565b611adc60408301856115be565b611ae960608301846115be565b95945050505050565b7f53656e6469743a20696e76616c6964207369676e617475726500000000000000600082015250565b6000611b28601983611530565b9150611b3382611af2565b602082019050919050565b60006020820190508181036000830152611b5781611b1b565b9050919050565b6000606082019050611b736000830186611411565b611b806020830185611411565b611b8d6040830184611402565b949350505050565b60008115159050919050565b611baa81611b95565b8114611bb557600080fd5b50565b600081519050611bc781611ba1565b92915050565b600060208284031215611be357611be261122b565b5b6000611bf184828501611bb8565b91505092915050565b7f53656e6469743a206661696c656420746f2073656e6420746f6b656e73000000600082015250565b6000611c30601d83611530565b9150611c3b82611bfa565b602082019050919050565b60006020820190508181036000830152611c5f81611c23565b9050919050565b7f496e697469616c697a61626c653a20636f6e747261637420697320616c72656160008201527f647920696e697469616c697a6564000000000000000000000000000000000000602082015250565b6000611cc2602e83611530565b9150611ccd82611c66565b604082019050919050565b60006020820190508181036000830152611cf181611cb5565b9050919050565b6000819050919050565b6000819050919050565b6000611d27611d22611d1d84611cf8565b611d02565b6112c4565b9050919050565b611d3781611d0c565b82525050565b6000602082019050611d526000830184611d2e565b92915050565b7f4549503731323a20556e696e697469616c697a65640000000000000000000000600082015250565b6000611d8e601583611530565b9150611d9982611d58565b602082019050919050565b60006020820190508181036000830152611dbd81611d81565b9050919050565b7f4e487b7100000000000000000000000000000000000000000000000000000000600052604160045260246000fd5b7f4f776e61626c653a206e6577206f776e657220697320746865207a65726f206160008201527f6464726573730000000000000000000000000000000000000000000000000000602082015250565b6000611e4f602683611530565b9150611e5a82611df3565b604082019050919050565b60006020820190508181036000830152611e7e81611e42565b9050919050565b7f4f776e61626c653a2063616c6c6572206973206e6f7420746865206f776e6572600082015250565b6000611ebb602083611530565b9150611ec682611e85565b602082019050919050565b60006020820190508181036000830152611eea81611eae565b9050919050565b7f496e697469616c697a61626c653a20636f6e7472616374206973206e6f74206960008201527f6e697469616c697a696e67000000000000000000000000000000000000000000602082015250565b6000611f4d602b83611530565b9150611f5882611ef1565b604082019050919050565b60006020820190508181036000830152611f7c81611f40565b9050919050565b7f4e487b7100000000000000000000000000000000000000000000000000000000600052602260045260246000fd5b60006002820490506001821680611fca57607f821691505b60208210811415611fde57611fdd611f83565b5b50919050565b600060a082019050611ff960008301886115be565b61200660208301876115be565b61201360408301866115be565b6120206060830185611402565b61202d6080830184611411565b969550505050505056fea264697066735822122082604a7b5479d0ec4ae588f3e8a6bf7a48f34312d5f2e442944dc703b74d986e64736f6c63430008080033",
  "devdoc": {
    "kind": "dev",
    "methods": {
      "eip712Domain()": {
        "details": "See {EIP-5267}. _Available since v4.9._"
      },
      "owner()": {
        "details": "Returns the address of the current owner."
      },
      "renounceOwnership()": {
        "details": "Leaves the contract without owner. It will not be possible to call `onlyOwner` functions. Can only be called by the current owner. NOTE: Renouncing ownership will leave the contract without an owner, thereby disabling any functionality that is only available to the owner."
      },
      "transferOwnership(address)": {
        "details": "Transfers ownership of the contract to a new account (`newOwner`). Can only be called by the current owner."
      }
    },
    "version": 1
  },
  "userdoc": {
    "kind": "user",
    "methods": {},
    "version": 1
  },
  "storageLayout": {
    "storage": [
      {
        "astId": 166,
        "contract": "contracts/Sendit.sol:Sendit",
        "label": "_initialized",
        "offset": 0,
        "slot": "0",
        "type": "t_uint8"
      },
      {
        "astId": 169,
        "contract": "contracts/Sendit.sol:Sendit",
        "label": "_initializing",
        "offset": 1,
        "slot": "0",
        "type": "t_bool"
      },
      {
        "astId": 1414,
        "contract": "contracts/Sendit.sol:Sendit",
        "label": "__gap",
        "offset": 0,
        "slot": "1",
        "type": "t_array(t_uint256)50_storage"
      },
      {
        "astId": 10,
        "contract": "contracts/Sendit.sol:Sendit",
        "label": "_owner",
        "offset": 0,
        "slot": "51",
        "type": "t_address"
      },
      {
        "astId": 130,
        "contract": "contracts/Sendit.sol:Sendit",
        "label": "__gap",
        "offset": 0,
        "slot": "52",
        "type": "t_array(t_uint256)49_storage"
      },
      {
        "astId": 2028,
        "contract": "contracts/Sendit.sol:Sendit",
        "label": "_hashedName",
        "offset": 0,
        "slot": "101",
        "type": "t_bytes32"
      },
      {
        "astId": 2031,
        "contract": "contracts/Sendit.sol:Sendit",
        "label": "_hashedVersion",
        "offset": 0,
        "slot": "102",
        "type": "t_bytes32"
      },
      {
        "astId": 2033,
        "contract": "contracts/Sendit.sol:Sendit",
        "label": "_name",
        "offset": 0,
        "slot": "103",
        "type": "t_string_storage"
      },
      {
        "astId": 2035,
        "contract": "contracts/Sendit.sol:Sendit",
        "label": "_version",
        "offset": 0,
        "slot": "104",
        "type": "t_string_storage"
      },
      {
        "astId": 2293,
        "contract": "contracts/Sendit.sol:Sendit",
        "label": "__gap",
        "offset": 0,
        "slot": "105",
        "type": "t_array(t_uint256)48_storage"
      },
      {
        "astId": 3296,
        "contract": "contracts/Sendit.sol:Sendit",
        "label": "requests",
        "offset": 0,
        "slot": "153",
        "type": "t_mapping(t_uint256,t_struct(Request)3291_storage)"
      }
    ],
    "types": {
      "t_address": {
        "encoding": "inplace",
        "label": "address",
        "numberOfBytes": "20"
      },
      "t_array(t_uint256)48_storage": {
        "base": "t_uint256",
        "encoding": "inplace",
        "label": "uint256[48]",
        "numberOfBytes": "1536"
      },
      "t_array(t_uint256)49_storage": {
        "base": "t_uint256",
        "encoding": "inplace",
        "label": "uint256[49]",
        "numberOfBytes": "1568"
      },
      "t_array(t_uint256)50_storage": {
        "base": "t_uint256",
        "encoding": "inplace",
        "label": "uint256[50]",
        "numberOfBytes": "1600"
      },
      "t_bool": {
        "encoding": "inplace",
        "label": "bool",
        "numberOfBytes": "1"
      },
      "t_bytes32": {
        "encoding": "inplace",
        "label": "bytes32",
        "numberOfBytes": "32"
      },
      "t_enum(RequestStatus)3279": {
        "encoding": "inplace",
        "label": "enum Sendit.RequestStatus",
        "numberOfBytes": "1"
      },
      "t_mapping(t_uint256,t_struct(Request)3291_storage)": {
        "encoding": "mapping",
        "key": "t_uint256",
        "label": "mapping(uint256 => struct Sendit.Request)",
        "numberOfBytes": "32",
        "value": "t_struct(Request)3291_storage"
      },
      "t_string_storage": {
        "encoding": "bytes",
        "label": "string",
        "numberOfBytes": "32"
      },
      "t_struct(Request)3291_storage": {
        "encoding": "inplace",
        "label": "struct Sendit.Request",
        "members": [
          {
            "astId": 3281,
            "contract": "contracts/Sendit.sol:Sendit",
            "label": "id",
            "offset": 0,
            "slot": "0",
            "type": "t_uint256"
          },
          {
            "astId": 3283,
            "contract": "contracts/Sendit.sol:Sendit",
            "label": "recipient",
            "offset": 0,
            "slot": "1",
            "type": "t_address"
          },
          {
            "astId": 3285,
            "contract": "contracts/Sendit.sol:Sendit",
            "label": "value",
            "offset": 0,
            "slot": "2",
            "type": "t_uint256"
          },
          {
            "astId": 3287,
            "contract": "contracts/Sendit.sol:Sendit",
            "label": "token_address",
            "offset": 0,
            "slot": "3",
            "type": "t_address"
          },
          {
            "astId": 3290,
            "contract": "contracts/Sendit.sol:Sendit",
            "label": "status",
            "offset": 20,
            "slot": "3",
            "type": "t_enum(RequestStatus)3279"
          }
        ],
        "numberOfBytes": "128"
      },
      "t_uint256": {
        "encoding": "inplace",
        "label": "uint256",
        "numberOfBytes": "32"
      },
      "t_uint8": {
        "encoding": "inplace",
        "label": "uint8",
        "numberOfBytes": "1"
      }
    }
  }
}