{
  "address": "0x64214200CABff94b83528153482d6c3E82b1623E",
  "abi": [
    {
      "anonymous": false,
      "inputs": [],
      "name": "EIP712DomainChanged",
      "type": "event"
    },
    {
      "anonymous": false,
      "inputs": [
        {
          "indexed": false,
          "internalType": "uint8",
          "name": "version",
          "type": "uint8"
        }
      ],
      "name": "Initialized",
      "type": "event"
    },
    {
      "anonymous": false,
      "inputs": [
        {
          "indexed": false,
          "internalType": "uint256",
          "name": "nonce",
          "type": "uint256"
        },
        {
          "indexed": false,
          "internalType": "address",
          "name": "recipient",
          "type": "address"
        },
        {
          "indexed": false,
          "internalType": "uint256",
          "name": "value",
          "type": "uint256"
        },
        {
          "indexed": false,
          "internalType": "address",
          "name": "token_address",
          "type": "address"
        }
      ],
      "name": "RequestCompleted",
      "type": "event"
    },
    {
      "inputs": [],
      "name": "eip712Domain",
      "outputs": [
        {
          "internalType": "bytes1",
          "name": "fields",
          "type": "bytes1"
        },
        {
          "internalType": "string",
          "name": "name",
          "type": "string"
        },
        {
          "internalType": "string",
          "name": "version",
          "type": "string"
        },
        {
          "internalType": "uint256",
          "name": "chainId",
          "type": "uint256"
        },
        {
          "internalType": "address",
          "name": "verifyingContract",
          "type": "address"
        },
        {
          "internalType": "bytes32",
          "name": "salt",
          "type": "bytes32"
        },
        {
          "internalType": "uint256[]",
          "name": "extensions",
          "type": "uint256[]"
        }
      ],
      "stateMutability": "view",
      "type": "function"
    },
    {
      "inputs": [],
      "name": "initialize",
      "outputs": [],
      "stateMutability": "nonpayable",
      "type": "function"
    },
    {
      "inputs": [
        {
          "internalType": "address",
          "name": "",
          "type": "address"
        },
        {
          "internalType": "uint256",
          "name": "",
          "type": "uint256"
        }
      ],
      "name": "nonces",
      "outputs": [
        {
          "internalType": "bool",
          "name": "",
          "type": "bool"
        }
      ],
      "stateMutability": "view",
      "type": "function"
    },
    {
      "inputs": [
        {
          "internalType": "address",
          "name": "",
          "type": "address"
        },
        {
          "internalType": "uint256",
          "name": "",
          "type": "uint256"
        }
      ],
      "name": "requests",
      "outputs": [
        {
          "internalType": "uint256",
          "name": "nonce",
          "type": "uint256"
        },
        {
          "internalType": "address",
          "name": "recipient",
          "type": "address"
        },
        {
          "internalType": "uint256",
          "name": "value",
          "type": "uint256"
        },
        {
          "internalType": "address",
          "name": "token_address",
          "type": "address"
        },
        {
          "internalType": "uint256",
          "name": "expiry",
          "type": "uint256"
        },
        {
          "internalType": "enum Sendit.RequestStatus",
          "name": "status",
          "type": "uint8"
        }
      ],
      "stateMutability": "view",
      "type": "function"
    },
    {
      "inputs": [
        {
          "internalType": "uint256",
          "name": "_nonce",
          "type": "uint256"
        },
        {
          "internalType": "address",
          "name": "_recipient",
          "type": "address"
        },
        {
          "internalType": "uint256",
          "name": "_value",
          "type": "uint256"
        },
        {
          "internalType": "address",
          "name": "_token_address",
          "type": "address"
        },
        {
          "internalType": "uint256",
          "name": "_expiry",
          "type": "uint256"
        },
        {
          "internalType": "uint8",
          "name": "v",
          "type": "uint8"
        },
        {
          "internalType": "bytes32",
          "name": "r",
          "type": "bytes32"
        },
        {
          "internalType": "bytes32",
          "name": "s",
          "type": "bytes32"
        }
      ],
      "name": "send",
      "outputs": [],
      "stateMutability": "payable",
      "type": "function"
    }
  ],
  "transactionHash": "0x12daf7389a53a31616e409a0e9f58d3cb74ebfe2d2800075381e0fad6f28a3ed",
  "args": [],
  "numDeployments": 1,
  "solcInputHash": "d2d54c996c7203b61a0d4be310a7f7ef",
  "bytecode": "0x608060405234801561001057600080fd5b506122db806100206000396000f3fe60806040526004361061004a5760003560e01c8063502e1a161461004f578063606e27b31461008c5780638129fc1c146100a857806384b0196e146100bf5780639ecebe2a146100f0575b600080fd5b34801561005b57600080fd5b506100766004803603810190610071919061143c565b610132565b6040516100839190611497565b60405180910390f35b6100a660048036038101906100a19190611521565b610161565b005b3480156100b457600080fd5b506100bd610ace565b005b3480156100cb57600080fd5b506100d4610c80565b6040516100e79796959493929190611796565b60405180910390f35b3480156100fc57600080fd5b506101176004803603810190610112919061143c565b610d81565b60405161012996959493929190611891565b60405180910390f35b60676020528160005260406000206020528060005260406000206000915091509054906101000a900460ff1681565b610169610e17565b60001515606760008973ffffffffffffffffffffffffffffffffffffffff1673ffffffffffffffffffffffffffffffffffffffff16815260200190815260200160002060008a815260200190815260200160002060009054906101000a900460ff1615151461020d576040517f08c379a00000000000000000000000000000000000000000000000000000000081526004016102049061193e565b60405180910390fd5b600073ffffffffffffffffffffffffffffffffffffffff168773ffffffffffffffffffffffffffffffffffffffff16141561027d576040517f08c379a0000000000000000000000000000000000000000000000000000000008152600401610274906119aa565b60405180910390fd5b600086116102c0576040517f08c379a00000000000000000000000000000000000000000000000000000000081526004016102b790611a16565b60405180910390fd5b428411610302576040517f08c379a00000000000000000000000000000000000000000000000000000000081526004016102f990611a82565b60405180910390fd5b6002808111156103155761031461181a565b5b606860008973ffffffffffffffffffffffffffffffffffffffff1673ffffffffffffffffffffffffffffffffffffffff16815260200190815260200160002060008a815260200190815260200160002060050160009054906101000a900460ff1660028111156103885761038761181a565b5b14156103c9576040517f08c379a00000000000000000000000000000000000000000000000000000000081526004016103c090611aee565b60405180910390fd5b600160028111156103dd576103dc61181a565b5b606860008973ffffffffffffffffffffffffffffffffffffffff1673ffffffffffffffffffffffffffffffffffffffff16815260200190815260200160002060008a815260200190815260200160002060050160009054906101000a900460ff1660028111156104505761044f61181a565b5b1415610491576040517f08c379a000000000000000000000000000000000000000000000000000000000815260040161048890611b5a565b60405180910390fd5b600060028111156104a5576104a461181a565b5b606860008973ffffffffffffffffffffffffffffffffffffffff1673ffffffffffffffffffffffffffffffffffffffff16815260200190815260200160002060008a815260200190815260200160002060050160009054906101000a900460ff1660028111156105185761051761181a565b5b14610558576040517f08c379a000000000000000000000000000000000000000000000000000000000815260040161054f90611bc6565b60405180910390fd5b60006105b37faad6071e486f4708309686da30d998bea945bde0ab5e758bd93a2e1b446922298a8a8a8a8a60405160200161059896959493929190611be6565b60405160208183030381529060405280519060200120610e67565b90506000600182868686604051600081526020016040526040516105da9493929190611c56565b6020604051602081039080840390855afa1580156105fc573d6000803e3d6000fd5b5050506020604051035190508873ffffffffffffffffffffffffffffffffffffffff168173ffffffffffffffffffffffffffffffffffffffff1614610676576040517f08c379a000000000000000000000000000000000000000000000000000000000815260040161066d90611ce7565b60405180910390fd5b6040518060c001604052808b81526020018a73ffffffffffffffffffffffffffffffffffffffff1681526020018981526020018873ffffffffffffffffffffffffffffffffffffffff1681526020018781526020016002808111156106de576106dd61181a565b5b815250606860008b73ffffffffffffffffffffffffffffffffffffffff1673ffffffffffffffffffffffffffffffffffffffff16815260200190815260200160002060008c81526020019081526020016000206000820151816000015560208201518160010160006101000a81548173ffffffffffffffffffffffffffffffffffffffff021916908373ffffffffffffffffffffffffffffffffffffffff1602179055506040820151816002015560608201518160030160006101000a81548173ffffffffffffffffffffffffffffffffffffffff021916908373ffffffffffffffffffffffffffffffffffffffff1602179055506080820151816004015560a08201518160050160006101000a81548160ff021916908360028111156108085761080761181a565b5b02179055509050506001606760008b73ffffffffffffffffffffffffffffffffffffffff1673ffffffffffffffffffffffffffffffffffffffff16815260200190815260200160002060008c815260200190815260200160002060006101000a81548160ff021916908315150217905550600073ffffffffffffffffffffffffffffffffffffffff168773ffffffffffffffffffffffffffffffffffffffff1614156109a2578734146108f0576040517f08c379a00000000000000000000000000000000000000000000000000000000081526004016108e790611d53565b60405180910390fd5b60008973ffffffffffffffffffffffffffffffffffffffff168960405161091690611da4565b60006040518083038185875af1925050503d8060008114610953576040519150601f19603f3d011682016040523d82523d6000602084013e610958565b606091505b505090508061099c576040517f08c379a000000000000000000000000000000000000000000000000000000000815260040161099390611e05565b60405180910390fd5b50610a7d565b600087905060008173ffffffffffffffffffffffffffffffffffffffff166323b872dd338d8d6040518463ffffffff1660e01b81526004016109e693929190611e25565b602060405180830381600087803b158015610a0057600080fd5b505af1158015610a14573d6000803e3d6000fd5b505050506040513d601f19601f82011682018060405250810190610a389190611e88565b905080610a7a576040517f08c379a0000000000000000000000000000000000000000000000000000000008152600401610a7190611f01565b60405180910390fd5b50505b7f0dc7606a8a73c942e24eb50427b99f21d3a5d7366b5a653f187b64e2dc10bb708a8a8a8a604051610ab29493929190611f21565b60405180910390a15050610ac4610e81565b5050505050505050565b60008060019054906101000a900460ff16159050808015610aff5750600160008054906101000a900460ff1660ff16105b80610b2c5750610b0e30610e8b565b158015610b2b5750600160008054906101000a900460ff1660ff16145b5b610b6b576040517f08c379a0000000000000000000000000000000000000000000000000000000008152600401610b6290611fd8565b60405180910390fd5b60016000806101000a81548160ff021916908360ff1602179055508015610ba8576001600060016101000a81548160ff0219169083151502179055505b610bb0610eae565b610c246040518060400160405280600681526020017f53656e64697400000000000000000000000000000000000000000000000000008152506040518060400160405280600581526020017f302e302e31000000000000000000000000000000000000000000000000000000815250610f07565b8015610c7d5760008060016101000a81548160ff0219169083151502179055507f7f26b83ff96e1f2b6a682f133852f6798a09c465da95921460cefb38474024986001604051610c74919061203d565b60405180910390a15b50565b6000606080600080600060606000801b600154148015610ca457506000801b600254145b610ce3576040517f08c379a0000000000000000000000000000000000000000000000000000000008152600401610cda906120a4565b60405180910390fd5b610ceb610f64565b610cf3610ff6565b46306000801b600067ffffffffffffffff811115610d1457610d136120c4565b5b604051908082528060200260200182016040528015610d425781602001602082028036833780820191505090505b507f0f00000000000000000000000000000000000000000000000000000000000000959493929190965096509650965096509650965090919293949596565b6068602052816000526040600020602052806000526040600020600091509150508060000154908060010160009054906101000a900473ffffffffffffffffffffffffffffffffffffffff16908060020154908060030160009054906101000a900473ffffffffffffffffffffffffffffffffffffffff16908060040154908060050160009054906101000a900460ff16905086565b60026035541415610e5d576040517f08c379a0000000000000000000000000000000000000000000000000000000008152600401610e549061213f565b60405180910390fd5b6002603581905550565b6000610e7a610e74611088565b83611097565b9050919050565b6001603581905550565b6000808273ffffffffffffffffffffffffffffffffffffffff163b119050919050565b600060019054906101000a900460ff16610efd576040517f08c379a0000000000000000000000000000000000000000000000000000000008152600401610ef4906121d1565b60405180910390fd5b610f056110d8565b565b600060019054906101000a900460ff16610f56576040517f08c379a0000000000000000000000000000000000000000000000000000000008152600401610f4d906121d1565b60405180910390fd5b610f608282611131565b5050565b606060038054610f7390612220565b80601f0160208091040260200160405190810160405280929190818152602001828054610f9f90612220565b8015610fec5780601f10610fc157610100808354040283529160200191610fec565b820191906000526020600020905b815481529060010190602001808311610fcf57829003601f168201915b5050505050905090565b60606004805461100590612220565b80601f016020809104026020016040519081016040528092919081815260200182805461103190612220565b801561107e5780601f106110535761010080835404028352916020019161107e565b820191906000526020600020905b81548152906001019060200180831161106157829003601f168201915b5050505050905090565b60006110926111c6565b905090565b60006040517f190100000000000000000000000000000000000000000000000000000000000081528360028201528260228201526042812091505092915050565b600060019054906101000a900460ff16611127576040517f08c379a000000000000000000000000000000000000000000000000000000000815260040161111e906121d1565b60405180910390fd5b6001603581905550565b600060019054906101000a900460ff16611180576040517f08c379a0000000000000000000000000000000000000000000000000000000008152600401611177906121d1565b60405180910390fd5b8160039080519060200190611196929190611300565b5080600490805190602001906111ad929190611300565b506000801b6001819055506000801b6002819055505050565b60007f8b73c3c69bb8fe3d512ecc4cf759cc79239f7b179b0ffacaa9a75d522b39400f6111f161122a565b6111f9611295565b463060405160200161120f959493929190612252565b60405160208183030381529060405280519060200120905090565b600080611235610f64565b9050600081511115611251578080519060200120915050611292565b600060015490506000801b811461126c578092505050611292565b7fc5d2460186f7233c927e7db2dcc703c0e500b653ca82273b7bfad8045d85a470925050505b90565b6000806112a0610ff6565b90506000815111156112bc5780805190602001209150506112fd565b600060025490506000801b81146112d75780925050506112fd565b7fc5d2460186f7233c927e7db2dcc703c0e500b653ca82273b7bfad8045d85a470925050505b90565b82805461130c90612220565b90600052602060002090601f01602090048101928261132e5760008555611375565b82601f1061134757805160ff1916838001178555611375565b82800160010185558215611375579182015b82811115611374578251825591602001919060010190611359565b5b5090506113829190611386565b5090565b5b8082111561139f576000816000905550600101611387565b5090565b600080fd5b600073ffffffffffffffffffffffffffffffffffffffff82169050919050565b60006113d3826113a8565b9050919050565b6113e3816113c8565b81146113ee57600080fd5b50565b600081359050611400816113da565b92915050565b6000819050919050565b61141981611406565b811461142457600080fd5b50565b60008135905061143681611410565b92915050565b60008060408385031215611453576114526113a3565b5b6000611461858286016113f1565b925050602061147285828601611427565b9150509250929050565b60008115159050919050565b6114918161147c565b82525050565b60006020820190506114ac6000830184611488565b92915050565b600060ff82169050919050565b6114c8816114b2565b81146114d357600080fd5b50565b6000813590506114e5816114bf565b92915050565b6000819050919050565b6114fe816114eb565b811461150957600080fd5b50565b60008135905061151b816114f5565b92915050565b600080600080600080600080610100898b031215611542576115416113a3565b5b60006115508b828c01611427565b98505060206115618b828c016113f1565b97505060406115728b828c01611427565b96505060606115838b828c016113f1565b95505060806115948b828c01611427565b94505060a06115a58b828c016114d6565b93505060c06115b68b828c0161150c565b92505060e06115c78b828c0161150c565b9150509295985092959890939650565b60007fff0000000000000000000000000000000000000000000000000000000000000082169050919050565b61160c816115d7565b82525050565b600081519050919050565b600082825260208201905092915050565b60005b8381101561164c578082015181840152602081019050611631565b8381111561165b576000848401525b50505050565b6000601f19601f8301169050919050565b600061167d82611612565b611687818561161d565b935061169781856020860161162e565b6116a081611661565b840191505092915050565b6116b481611406565b82525050565b6116c3816113c8565b82525050565b6116d2816114eb565b82525050565b600081519050919050565b600082825260208201905092915050565b6000819050602082019050919050565b61170d81611406565b82525050565b600061171f8383611704565b60208301905092915050565b6000602082019050919050565b6000611743826116d8565b61174d81856116e3565b9350611758836116f4565b8060005b838110156117895781516117708882611713565b975061177b8361172b565b92505060018101905061175c565b5085935050505092915050565b600060e0820190506117ab600083018a611603565b81810360208301526117bd8189611672565b905081810360408301526117d18188611672565b90506117e060608301876116ab565b6117ed60808301866116ba565b6117fa60a08301856116c9565b81810360c083015261180c8184611738565b905098975050505050505050565b7f4e487b7100000000000000000000000000000000000000000000000000000000600052602160045260246000fd5b6003811061185a5761185961181a565b5b50565b600081905061186b82611849565b919050565b600061187b8261185d565b9050919050565b61188b81611870565b82525050565b600060c0820190506118a660008301896116ab565b6118b360208301886116ba565b6118c060408301876116ab565b6118cd60608301866116ba565b6118da60808301856116ab565b6118e760a0830184611882565b979650505050505050565b7f53656e6469743a204e6f6e636520616c72656164792075736564000000000000600082015250565b6000611928601a8361161d565b9150611933826118f2565b602082019050919050565b600060208201905081810360008301526119578161191b565b9050919050565b7f53656e6469743a20696e76616c696420726563697069656e7400000000000000600082015250565b600061199460198361161d565b915061199f8261195e565b602082019050919050565b600060208201905081810360008301526119c381611987565b9050919050565b7f53656e6469743a20696e76616c69642076616c75650000000000000000000000600082015250565b6000611a0060158361161d565b9150611a0b826119ca565b602082019050919050565b60006020820190508181036000830152611a2f816119f3565b9050919050565b7f53656e6469743a20726571756573742069732065787069726564000000000000600082015250565b6000611a6c601a8361161d565b9150611a7782611a36565b602082019050919050565b60006020820190508181036000830152611a9b81611a5f565b9050919050565b7f53656e6469743a207265717565737420697320636f6d706c6574656400000000600082015250565b6000611ad8601c8361161d565b9150611ae382611aa2565b602082019050919050565b60006020820190508181036000830152611b0781611acb565b9050919050565b7f53656e6469743a20726571756573742069732072656a65637465640000000000600082015250565b6000611b44601b8361161d565b9150611b4f82611b0e565b602082019050919050565b60006020820190508181036000830152611b7381611b37565b9050919050565b7f53656e6469743a2072657175657374206973206e6f74206f70656e0000000000600082015250565b6000611bb0601b8361161d565b9150611bbb82611b7a565b602082019050919050565b60006020820190508181036000830152611bdf81611ba3565b9050919050565b600060c082019050611bfb60008301896116c9565b611c0860208301886116ab565b611c1560408301876116ba565b611c2260608301866116ab565b611c2f60808301856116ba565b611c3c60a08301846116ab565b979650505050505050565b611c50816114b2565b82525050565b6000608082019050611c6b60008301876116c9565b611c786020830186611c47565b611c8560408301856116c9565b611c9260608301846116c9565b95945050505050565b7f53656e6469743a20696e76616c6964207369676e617475726500000000000000600082015250565b6000611cd160198361161d565b9150611cdc82611c9b565b602082019050919050565b60006020820190508181036000830152611d0081611cc4565b9050919050565b7f53656e6469743a20696e76616c6964206d73672e76616c756500000000000000600082015250565b6000611d3d60198361161d565b9150611d4882611d07565b602082019050919050565b60006020820190508181036000830152611d6c81611d30565b9050919050565b600081905092915050565b50565b6000611d8e600083611d73565b9150611d9982611d7e565b600082019050919050565b6000611daf82611d81565b9150819050919050565b7f53656e6469743a206661696c656420746f2073656e6420657468657200000000600082015250565b6000611def601c8361161d565b9150611dfa82611db9565b602082019050919050565b60006020820190508181036000830152611e1e81611de2565b9050919050565b6000606082019050611e3a60008301866116ba565b611e4760208301856116ba565b611e5460408301846116ab565b949350505050565b611e658161147c565b8114611e7057600080fd5b50565b600081519050611e8281611e5c565b92915050565b600060208284031215611e9e57611e9d6113a3565b5b6000611eac84828501611e73565b91505092915050565b7f53656e6469743a206661696c656420746f2073656e6420746f6b656e73000000600082015250565b6000611eeb601d8361161d565b9150611ef682611eb5565b602082019050919050565b60006020820190508181036000830152611f1a81611ede565b9050919050565b6000608082019050611f3660008301876116ab565b611f4360208301866116ba565b611f5060408301856116ab565b611f5d60608301846116ba565b95945050505050565b7f496e697469616c697a61626c653a20636f6e747261637420697320616c72656160008201527f647920696e697469616c697a6564000000000000000000000000000000000000602082015250565b6000611fc2602e8361161d565b9150611fcd82611f66565b604082019050919050565b60006020820190508181036000830152611ff181611fb5565b9050919050565b6000819050919050565b6000819050919050565b600061202761202261201d84611ff8565b612002565b6114b2565b9050919050565b6120378161200c565b82525050565b6000602082019050612052600083018461202e565b92915050565b7f4549503731323a20556e696e697469616c697a65640000000000000000000000600082015250565b600061208e60158361161d565b915061209982612058565b602082019050919050565b600060208201905081810360008301526120bd81612081565b9050919050565b7f4e487b7100000000000000000000000000000000000000000000000000000000600052604160045260246000fd5b7f5265656e7472616e637947756172643a207265656e7472616e742063616c6c00600082015250565b6000612129601f8361161d565b9150612134826120f3565b602082019050919050565b600060208201905081810360008301526121588161211c565b9050919050565b7f496e697469616c697a61626c653a20636f6e7472616374206973206e6f74206960008201527f6e697469616c697a696e67000000000000000000000000000000000000000000602082015250565b60006121bb602b8361161d565b91506121c68261215f565b604082019050919050565b600060208201905081810360008301526121ea816121ae565b9050919050565b7f4e487b7100000000000000000000000000000000000000000000000000000000600052602260045260246000fd5b6000600282049050600182168061223857607f821691505b6020821081141561224c5761224b6121f1565b5b50919050565b600060a08201905061226760008301886116c9565b61227460208301876116c9565b61228160408301866116c9565b61228e60608301856116ab565b61229b60808301846116ba565b969550505050505056fea26469706673582212200ae1194f399f60b9b007442249d5f87c398515494c1e507b397f353f9b4c9e6664736f6c63430008080033",
  "devdoc": {
    "kind": "dev",
    "methods": {
      "eip712Domain()": {
        "details": "See {EIP-5267}. _Available since v4.9._"
      }
    },
    "version": 1
  },
  "userdoc": {
    "kind": "user",
    "methods": {},
    "version": 1
  },
  "storageLayout": {
    "storage": [
      {
        "astId": 166,
        "contract": "contracts/Sendit.sol:Sendit",
        "label": "_initialized",
        "offset": 0,
        "slot": "0",
        "type": "t_uint8"
      },
      {
        "astId": 169,
        "contract": "contracts/Sendit.sol:Sendit",
        "label": "_initializing",
        "offset": 1,
        "slot": "0",
        "type": "t_bool"
      },
      {
        "astId": 2112,
        "contract": "contracts/Sendit.sol:Sendit",
        "label": "_hashedName",
        "offset": 0,
        "slot": "1",
        "type": "t_bytes32"
      },
      {
        "astId": 2115,
        "contract": "contracts/Sendit.sol:Sendit",
        "label": "_hashedVersion",
        "offset": 0,
        "slot": "2",
        "type": "t_bytes32"
      },
      {
        "astId": 2117,
        "contract": "contracts/Sendit.sol:Sendit",
        "label": "_name",
        "offset": 0,
        "slot": "3",
        "type": "t_string_storage"
      },
      {
        "astId": 2119,
        "contract": "contracts/Sendit.sol:Sendit",
        "label": "_version",
        "offset": 0,
        "slot": "4",
        "type": "t_string_storage"
      },
      {
        "astId": 2377,
        "contract": "contracts/Sendit.sol:Sendit",
        "label": "__gap",
        "offset": 0,
        "slot": "5",
        "type": "t_array(t_uint256)48_storage"
      },
      {
        "astId": 342,
        "contract": "contracts/Sendit.sol:Sendit",
        "label": "_status",
        "offset": 0,
        "slot": "53",
        "type": "t_uint256"
      },
      {
        "astId": 411,
        "contract": "contracts/Sendit.sol:Sendit",
        "label": "__gap",
        "offset": 0,
        "slot": "54",
        "type": "t_array(t_uint256)49_storage"
      },
      {
        "astId": 3383,
        "contract": "contracts/Sendit.sol:Sendit",
        "label": "nonces",
        "offset": 0,
        "slot": "103",
        "type": "t_mapping(t_address,t_mapping(t_uint256,t_bool))"
      },
      {
        "astId": 3390,
        "contract": "contracts/Sendit.sol:Sendit",
        "label": "requests",
        "offset": 0,
        "slot": "104",
        "type": "t_mapping(t_address,t_mapping(t_uint256,t_struct(Request)3377_storage))"
      }
    ],
    "types": {
      "t_address": {
        "encoding": "inplace",
        "label": "address",
        "numberOfBytes": "20"
      },
      "t_array(t_uint256)48_storage": {
        "base": "t_uint256",
        "encoding": "inplace",
        "label": "uint256[48]",
        "numberOfBytes": "1536"
      },
      "t_array(t_uint256)49_storage": {
        "base": "t_uint256",
        "encoding": "inplace",
        "label": "uint256[49]",
        "numberOfBytes": "1568"
      },
      "t_bool": {
        "encoding": "inplace",
        "label": "bool",
        "numberOfBytes": "1"
      },
      "t_bytes32": {
        "encoding": "inplace",
        "label": "bytes32",
        "numberOfBytes": "32"
      },
      "t_enum(RequestStatus)3363": {
        "encoding": "inplace",
        "label": "enum Sendit.RequestStatus",
        "numberOfBytes": "1"
      },
      "t_mapping(t_address,t_mapping(t_uint256,t_bool))": {
        "encoding": "mapping",
        "key": "t_address",
        "label": "mapping(address => mapping(uint256 => bool))",
        "numberOfBytes": "32",
        "value": "t_mapping(t_uint256,t_bool)"
      },
      "t_mapping(t_address,t_mapping(t_uint256,t_struct(Request)3377_storage))": {
        "encoding": "mapping",
        "key": "t_address",
        "label": "mapping(address => mapping(uint256 => struct Sendit.Request))",
        "numberOfBytes": "32",
        "value": "t_mapping(t_uint256,t_struct(Request)3377_storage)"
      },
      "t_mapping(t_uint256,t_bool)": {
        "encoding": "mapping",
        "key": "t_uint256",
        "label": "mapping(uint256 => bool)",
        "numberOfBytes": "32",
        "value": "t_bool"
      },
      "t_mapping(t_uint256,t_struct(Request)3377_storage)": {
        "encoding": "mapping",
        "key": "t_uint256",
        "label": "mapping(uint256 => struct Sendit.Request)",
        "numberOfBytes": "32",
        "value": "t_struct(Request)3377_storage"
      },
      "t_string_storage": {
        "encoding": "bytes",
        "label": "string",
        "numberOfBytes": "32"
      },
      "t_struct(Request)3377_storage": {
        "encoding": "inplace",
        "label": "struct Sendit.Request",
        "members": [
          {
            "astId": 3365,
            "contract": "contracts/Sendit.sol:Sendit",
            "label": "nonce",
            "offset": 0,
            "slot": "0",
            "type": "t_uint256"
          },
          {
            "astId": 3367,
            "contract": "contracts/Sendit.sol:Sendit",
            "label": "recipient",
            "offset": 0,
            "slot": "1",
            "type": "t_address"
          },
          {
            "astId": 3369,
            "contract": "contracts/Sendit.sol:Sendit",
            "label": "value",
            "offset": 0,
            "slot": "2",
            "type": "t_uint256"
          },
          {
            "astId": 3371,
            "contract": "contracts/Sendit.sol:Sendit",
            "label": "token_address",
            "offset": 0,
            "slot": "3",
            "type": "t_address"
          },
          {
            "astId": 3373,
            "contract": "contracts/Sendit.sol:Sendit",
            "label": "expiry",
            "offset": 0,
            "slot": "4",
            "type": "t_uint256"
          },
          {
            "astId": 3376,
            "contract": "contracts/Sendit.sol:Sendit",
            "label": "status",
            "offset": 0,
            "slot": "5",
            "type": "t_enum(RequestStatus)3363"
          }
        ],
        "numberOfBytes": "192"
      },
      "t_uint256": {
        "encoding": "inplace",
        "label": "uint256",
        "numberOfBytes": "32"
      },
      "t_uint8": {
        "encoding": "inplace",
        "label": "uint8",
        "numberOfBytes": "1"
      }
    }
  }
}