{
  "address": "0xF185c24DB7148d4Ff4Bd3496b1cDd375c1899A7d",
  "abi": [
    {
      "anonymous": false,
      "inputs": [],
      "name": "EIP712DomainChanged",
      "type": "event"
    },
    {
      "anonymous": false,
      "inputs": [
        {
          "indexed": false,
          "internalType": "uint8",
          "name": "version",
          "type": "uint8"
        }
      ],
      "name": "Initialized",
      "type": "event"
    },
    {
      "anonymous": false,
      "inputs": [
        {
          "indexed": false,
          "internalType": "uint256",
          "name": "nonce",
          "type": "uint256"
        },
        {
          "indexed": false,
          "internalType": "address",
          "name": "recipient",
          "type": "address"
        },
        {
          "indexed": false,
          "internalType": "uint256",
          "name": "value",
          "type": "uint256"
        },
        {
          "indexed": false,
          "internalType": "address",
          "name": "token_address",
          "type": "address"
        }
      ],
      "name": "RequestCompleted",
      "type": "event"
    },
    {
      "inputs": [],
      "name": "eip712Domain",
      "outputs": [
        {
          "internalType": "bytes1",
          "name": "fields",
          "type": "bytes1"
        },
        {
          "internalType": "string",
          "name": "name",
          "type": "string"
        },
        {
          "internalType": "string",
          "name": "version",
          "type": "string"
        },
        {
          "internalType": "uint256",
          "name": "chainId",
          "type": "uint256"
        },
        {
          "internalType": "address",
          "name": "verifyingContract",
          "type": "address"
        },
        {
          "internalType": "bytes32",
          "name": "salt",
          "type": "bytes32"
        },
        {
          "internalType": "uint256[]",
          "name": "extensions",
          "type": "uint256[]"
        }
      ],
      "stateMutability": "view",
      "type": "function"
    },
    {
      "inputs": [],
      "name": "initialize",
      "outputs": [],
      "stateMutability": "nonpayable",
      "type": "function"
    },
    {
      "inputs": [
        {
          "internalType": "address",
          "name": "",
          "type": "address"
        },
        {
          "internalType": "uint256",
          "name": "",
          "type": "uint256"
        }
      ],
      "name": "nonces",
      "outputs": [
        {
          "internalType": "bool",
          "name": "",
          "type": "bool"
        }
      ],
      "stateMutability": "view",
      "type": "function"
    },
    {
      "inputs": [
        {
          "internalType": "address",
          "name": "",
          "type": "address"
        },
        {
          "internalType": "uint256",
          "name": "",
          "type": "uint256"
        }
      ],
      "name": "requests",
      "outputs": [
        {
          "internalType": "uint256",
          "name": "nonce",
          "type": "uint256"
        },
        {
          "internalType": "address",
          "name": "recipient",
          "type": "address"
        },
        {
          "internalType": "uint256",
          "name": "value",
          "type": "uint256"
        },
        {
          "internalType": "address",
          "name": "token_address",
          "type": "address"
        },
        {
          "internalType": "uint256",
          "name": "expiry",
          "type": "uint256"
        },
        {
          "internalType": "enum Sendit.RequestStatus",
          "name": "status",
          "type": "uint8"
        }
      ],
      "stateMutability": "view",
      "type": "function"
    },
    {
      "inputs": [
        {
          "internalType": "uint256",
          "name": "_nonce",
          "type": "uint256"
        },
        {
          "internalType": "address",
          "name": "_recipient",
          "type": "address"
        },
        {
          "internalType": "uint256",
          "name": "_value",
          "type": "uint256"
        },
        {
          "internalType": "address",
          "name": "_token_address",
          "type": "address"
        },
        {
          "internalType": "uint256",
          "name": "_expiry",
          "type": "uint256"
        },
        {
          "internalType": "uint8",
          "name": "v",
          "type": "uint8"
        },
        {
          "internalType": "bytes32",
          "name": "r",
          "type": "bytes32"
        },
        {
          "internalType": "bytes32",
          "name": "s",
          "type": "bytes32"
        }
      ],
      "name": "send",
      "outputs": [],
      "stateMutability": "payable",
      "type": "function"
    },
    {
      "inputs": [],
      "name": "versionC",
      "outputs": [
        {
          "internalType": "string",
          "name": "",
          "type": "string"
        }
      ],
      "stateMutability": "pure",
      "type": "function"
    }
  ],
  "transactionHash": "0x8c8e9f765d201b28602a446a855791ccad671b990c69d0db2e860da6d4ec0845",
  "args": [],
  "numDeployments": 2,
  "solcInputHash": "087766b3964030abe83e5463171f6568",
  "bytecode": "0x608060405234801561001057600080fd5b50612370806100206000396000f3fe6080604052600436106100555760003560e01c8063502e1a161461005a578063606e27b31461009757806378d3a705146100b35780638129fc1c146100de57806384b0196e146100f55780639ecebe2a14610126575b600080fd5b34801561006657600080fd5b50610081600480360381019061007c91906114af565b610168565b60405161008e919061150a565b60405180910390f35b6100b160048036038101906100ac9190611594565b610197565b005b3480156100bf57600080fd5b506100c8610b04565b6040516100d591906116e3565b60405180910390f35b3480156100ea57600080fd5b506100f3610b41565b005b34801561010157600080fd5b5061010a610cf3565b60405161011d979695949392919061182b565b60405180910390f35b34801561013257600080fd5b5061014d600480360381019061014891906114af565b610df4565b60405161015f96959493929190611926565b60405180910390f35b60676020528160005260406000206020528060005260406000206000915091509054906101000a900460ff1681565b61019f610e8a565b60001515606760008973ffffffffffffffffffffffffffffffffffffffff1673ffffffffffffffffffffffffffffffffffffffff16815260200190815260200160002060008a815260200190815260200160002060009054906101000a900460ff16151514610243576040517f08c379a000000000000000000000000000000000000000000000000000000000815260040161023a906119d3565b60405180910390fd5b600073ffffffffffffffffffffffffffffffffffffffff168773ffffffffffffffffffffffffffffffffffffffff1614156102b3576040517f08c379a00000000000000000000000000000000000000000000000000000000081526004016102aa90611a3f565b60405180910390fd5b600086116102f6576040517f08c379a00000000000000000000000000000000000000000000000000000000081526004016102ed90611aab565b60405180910390fd5b428411610338576040517f08c379a000000000000000000000000000000000000000000000000000000000815260040161032f90611b17565b60405180910390fd5b60028081111561034b5761034a6118af565b5b606860008973ffffffffffffffffffffffffffffffffffffffff1673ffffffffffffffffffffffffffffffffffffffff16815260200190815260200160002060008a815260200190815260200160002060050160009054906101000a900460ff1660028111156103be576103bd6118af565b5b14156103ff576040517f08c379a00000000000000000000000000000000000000000000000000000000081526004016103f690611b83565b60405180910390fd5b60016002811115610413576104126118af565b5b606860008973ffffffffffffffffffffffffffffffffffffffff1673ffffffffffffffffffffffffffffffffffffffff16815260200190815260200160002060008a815260200190815260200160002060050160009054906101000a900460ff166002811115610486576104856118af565b5b14156104c7576040517f08c379a00000000000000000000000000000000000000000000000000000000081526004016104be90611bef565b60405180910390fd5b600060028111156104db576104da6118af565b5b606860008973ffffffffffffffffffffffffffffffffffffffff1673ffffffffffffffffffffffffffffffffffffffff16815260200190815260200160002060008a815260200190815260200160002060050160009054906101000a900460ff16600281111561054e5761054d6118af565b5b1461058e576040517f08c379a000000000000000000000000000000000000000000000000000000000815260040161058590611c5b565b60405180910390fd5b60006105e97faad6071e486f4708309686da30d998bea945bde0ab5e758bd93a2e1b446922298a8a8a8a8a6040516020016105ce96959493929190611c7b565b60405160208183030381529060405280519060200120610eda565b90506000600182868686604051600081526020016040526040516106109493929190611ceb565b6020604051602081039080840390855afa158015610632573d6000803e3d6000fd5b5050506020604051035190508873ffffffffffffffffffffffffffffffffffffffff168173ffffffffffffffffffffffffffffffffffffffff16146106ac576040517f08c379a00000000000000000000000000000000000000000000000000000000081526004016106a390611d7c565b60405180910390fd5b6040518060c001604052808b81526020018a73ffffffffffffffffffffffffffffffffffffffff1681526020018981526020018873ffffffffffffffffffffffffffffffffffffffff168152602001878152602001600280811115610714576107136118af565b5b815250606860008b73ffffffffffffffffffffffffffffffffffffffff1673ffffffffffffffffffffffffffffffffffffffff16815260200190815260200160002060008c81526020019081526020016000206000820151816000015560208201518160010160006101000a81548173ffffffffffffffffffffffffffffffffffffffff021916908373ffffffffffffffffffffffffffffffffffffffff1602179055506040820151816002015560608201518160030160006101000a81548173ffffffffffffffffffffffffffffffffffffffff021916908373ffffffffffffffffffffffffffffffffffffffff1602179055506080820151816004015560a08201518160050160006101000a81548160ff0219169083600281111561083e5761083d6118af565b5b02179055509050506001606760008b73ffffffffffffffffffffffffffffffffffffffff1673ffffffffffffffffffffffffffffffffffffffff16815260200190815260200160002060008c815260200190815260200160002060006101000a81548160ff021916908315150217905550600073ffffffffffffffffffffffffffffffffffffffff168773ffffffffffffffffffffffffffffffffffffffff1614156109d857873414610926576040517f08c379a000000000000000000000000000000000000000000000000000000000815260040161091d90611de8565b60405180910390fd5b60008973ffffffffffffffffffffffffffffffffffffffff168960405161094c90611e39565b60006040518083038185875af1925050503d8060008114610989576040519150601f19603f3d011682016040523d82523d6000602084013e61098e565b606091505b50509050806109d2576040517f08c379a00000000000000000000000000000000000000000000000000000000081526004016109c990611e9a565b60405180910390fd5b50610ab3565b600087905060008173ffffffffffffffffffffffffffffffffffffffff166323b872dd338d8d6040518463ffffffff1660e01b8152600401610a1c93929190611eba565b602060405180830381600087803b158015610a3657600080fd5b505af1158015610a4a573d6000803e3d6000fd5b505050506040513d601f19601f82011682018060405250810190610a6e9190611f1d565b905080610ab0576040517f08c379a0000000000000000000000000000000000000000000000000000000008152600401610aa790611f96565b60405180910390fd5b50505b7f0dc7606a8a73c942e24eb50427b99f21d3a5d7366b5a653f187b64e2dc10bb708a8a8a8a604051610ae89493929190611fb6565b60405180910390a15050610afa610ef4565b5050505050505050565b60606040518060400160405280600581526020017f302e302e31000000000000000000000000000000000000000000000000000000815250905090565b60008060019054906101000a900460ff16159050808015610b725750600160008054906101000a900460ff1660ff16105b80610b9f5750610b8130610efe565b158015610b9e5750600160008054906101000a900460ff1660ff16145b5b610bde576040517f08c379a0000000000000000000000000000000000000000000000000000000008152600401610bd59061206d565b60405180910390fd5b60016000806101000a81548160ff021916908360ff1602179055508015610c1b576001600060016101000a81548160ff0219169083151502179055505b610c23610f21565b610c976040518060400160405280600681526020017f53656e64697400000000000000000000000000000000000000000000000000008152506040518060400160405280600581526020017f302e302e31000000000000000000000000000000000000000000000000000000815250610f7a565b8015610cf05760008060016101000a81548160ff0219169083151502179055507f7f26b83ff96e1f2b6a682f133852f6798a09c465da95921460cefb38474024986001604051610ce791906120d2565b60405180910390a15b50565b6000606080600080600060606000801b600154148015610d1757506000801b600254145b610d56576040517f08c379a0000000000000000000000000000000000000000000000000000000008152600401610d4d90612139565b60405180910390fd5b610d5e610fd7565b610d66611069565b46306000801b600067ffffffffffffffff811115610d8757610d86612159565b5b604051908082528060200260200182016040528015610db55781602001602082028036833780820191505090505b507f0f00000000000000000000000000000000000000000000000000000000000000959493929190965096509650965096509650965090919293949596565b6068602052816000526040600020602052806000526040600020600091509150508060000154908060010160009054906101000a900473ffffffffffffffffffffffffffffffffffffffff16908060020154908060030160009054906101000a900473ffffffffffffffffffffffffffffffffffffffff16908060040154908060050160009054906101000a900460ff16905086565b60026035541415610ed0576040517f08c379a0000000000000000000000000000000000000000000000000000000008152600401610ec7906121d4565b60405180910390fd5b6002603581905550565b6000610eed610ee76110fb565b8361110a565b9050919050565b6001603581905550565b6000808273ffffffffffffffffffffffffffffffffffffffff163b119050919050565b600060019054906101000a900460ff16610f70576040517f08c379a0000000000000000000000000000000000000000000000000000000008152600401610f6790612266565b60405180910390fd5b610f7861114b565b565b600060019054906101000a900460ff16610fc9576040517f08c379a0000000000000000000000000000000000000000000000000000000008152600401610fc090612266565b60405180910390fd5b610fd382826111a4565b5050565b606060038054610fe6906122b5565b80601f0160208091040260200160405190810160405280929190818152602001828054611012906122b5565b801561105f5780601f106110345761010080835404028352916020019161105f565b820191906000526020600020905b81548152906001019060200180831161104257829003601f168201915b5050505050905090565b606060048054611078906122b5565b80601f01602080910402602001604051908101604052809291908181526020018280546110a4906122b5565b80156110f15780601f106110c6576101008083540402835291602001916110f1565b820191906000526020600020905b8154815290600101906020018083116110d457829003601f168201915b5050505050905090565b6000611105611239565b905090565b60006040517f190100000000000000000000000000000000000000000000000000000000000081528360028201528260228201526042812091505092915050565b600060019054906101000a900460ff1661119a576040517f08c379a000000000000000000000000000000000000000000000000000000000815260040161119190612266565b60405180910390fd5b6001603581905550565b600060019054906101000a900460ff166111f3576040517f08c379a00000000000000000000000000000000000000000000000000000000081526004016111ea90612266565b60405180910390fd5b8160039080519060200190611209929190611373565b508060049080519060200190611220929190611373565b506000801b6001819055506000801b6002819055505050565b60007f8b73c3c69bb8fe3d512ecc4cf759cc79239f7b179b0ffacaa9a75d522b39400f61126461129d565b61126c611308565b46306040516020016112829594939291906122e7565b60405160208183030381529060405280519060200120905090565b6000806112a8610fd7565b90506000815111156112c4578080519060200120915050611305565b600060015490506000801b81146112df578092505050611305565b7fc5d2460186f7233c927e7db2dcc703c0e500b653ca82273b7bfad8045d85a470925050505b90565b600080611313611069565b905060008151111561132f578080519060200120915050611370565b600060025490506000801b811461134a578092505050611370565b7fc5d2460186f7233c927e7db2dcc703c0e500b653ca82273b7bfad8045d85a470925050505b90565b82805461137f906122b5565b90600052602060002090601f0160209004810192826113a157600085556113e8565b82601f106113ba57805160ff19168380011785556113e8565b828001600101855582156113e8579182015b828111156113e75782518255916020019190600101906113cc565b5b5090506113f591906113f9565b5090565b5b808211156114125760008160009055506001016113fa565b5090565b600080fd5b600073ffffffffffffffffffffffffffffffffffffffff82169050919050565b60006114468261141b565b9050919050565b6114568161143b565b811461146157600080fd5b50565b6000813590506114738161144d565b92915050565b6000819050919050565b61148c81611479565b811461149757600080fd5b50565b6000813590506114a981611483565b92915050565b600080604083850312156114c6576114c5611416565b5b60006114d485828601611464565b92505060206114e58582860161149a565b9150509250929050565b60008115159050919050565b611504816114ef565b82525050565b600060208201905061151f60008301846114fb565b92915050565b600060ff82169050919050565b61153b81611525565b811461154657600080fd5b50565b60008135905061155881611532565b92915050565b6000819050919050565b6115718161155e565b811461157c57600080fd5b50565b60008135905061158e81611568565b92915050565b600080600080600080600080610100898b0312156115b5576115b4611416565b5b60006115c38b828c0161149a565b98505060206115d48b828c01611464565b97505060406115e58b828c0161149a565b96505060606115f68b828c01611464565b95505060806116078b828c0161149a565b94505060a06116188b828c01611549565b93505060c06116298b828c0161157f565b92505060e061163a8b828c0161157f565b9150509295985092959890939650565b600081519050919050565b600082825260208201905092915050565b60005b83811015611684578082015181840152602081019050611669565b83811115611693576000848401525b50505050565b6000601f19601f8301169050919050565b60006116b58261164a565b6116bf8185611655565b93506116cf818560208601611666565b6116d881611699565b840191505092915050565b600060208201905081810360008301526116fd81846116aa565b905092915050565b60007fff0000000000000000000000000000000000000000000000000000000000000082169050919050565b61173a81611705565b82525050565b61174981611479565b82525050565b6117588161143b565b82525050565b6117678161155e565b82525050565b600081519050919050565b600082825260208201905092915050565b6000819050602082019050919050565b6117a281611479565b82525050565b60006117b48383611799565b60208301905092915050565b6000602082019050919050565b60006117d88261176d565b6117e28185611778565b93506117ed83611789565b8060005b8381101561181e57815161180588826117a8565b9750611810836117c0565b9250506001810190506117f1565b5085935050505092915050565b600060e082019050611840600083018a611731565b818103602083015261185281896116aa565b9050818103604083015261186681886116aa565b90506118756060830187611740565b611882608083018661174f565b61188f60a083018561175e565b81810360c08301526118a181846117cd565b905098975050505050505050565b7f4e487b7100000000000000000000000000000000000000000000000000000000600052602160045260246000fd5b600381106118ef576118ee6118af565b5b50565b6000819050611900826118de565b919050565b6000611910826118f2565b9050919050565b61192081611905565b82525050565b600060c08201905061193b6000830189611740565b611948602083018861174f565b6119556040830187611740565b611962606083018661174f565b61196f6080830185611740565b61197c60a0830184611917565b979650505050505050565b7f53656e6469743a204e6f6e636520616c72656164792075736564000000000000600082015250565b60006119bd601a83611655565b91506119c882611987565b602082019050919050565b600060208201905081810360008301526119ec816119b0565b9050919050565b7f53656e6469743a20696e76616c696420726563697069656e7400000000000000600082015250565b6000611a29601983611655565b9150611a34826119f3565b602082019050919050565b60006020820190508181036000830152611a5881611a1c565b9050919050565b7f53656e6469743a20696e76616c69642076616c75650000000000000000000000600082015250565b6000611a95601583611655565b9150611aa082611a5f565b602082019050919050565b60006020820190508181036000830152611ac481611a88565b9050919050565b7f53656e6469743a20726571756573742069732065787069726564000000000000600082015250565b6000611b01601a83611655565b9150611b0c82611acb565b602082019050919050565b60006020820190508181036000830152611b3081611af4565b9050919050565b7f53656e6469743a207265717565737420697320636f6d706c6574656400000000600082015250565b6000611b6d601c83611655565b9150611b7882611b37565b602082019050919050565b60006020820190508181036000830152611b9c81611b60565b9050919050565b7f53656e6469743a20726571756573742069732072656a65637465640000000000600082015250565b6000611bd9601b83611655565b9150611be482611ba3565b602082019050919050565b60006020820190508181036000830152611c0881611bcc565b9050919050565b7f53656e6469743a2072657175657374206973206e6f74206f70656e0000000000600082015250565b6000611c45601b83611655565b9150611c5082611c0f565b602082019050919050565b60006020820190508181036000830152611c7481611c38565b9050919050565b600060c082019050611c90600083018961175e565b611c9d6020830188611740565b611caa604083018761174f565b611cb76060830186611740565b611cc4608083018561174f565b611cd160a0830184611740565b979650505050505050565b611ce581611525565b82525050565b6000608082019050611d00600083018761175e565b611d0d6020830186611cdc565b611d1a604083018561175e565b611d27606083018461175e565b95945050505050565b7f53656e6469743a20696e76616c6964207369676e617475726500000000000000600082015250565b6000611d66601983611655565b9150611d7182611d30565b602082019050919050565b60006020820190508181036000830152611d9581611d59565b9050919050565b7f53656e6469743a20696e76616c6964206d73672e76616c756500000000000000600082015250565b6000611dd2601983611655565b9150611ddd82611d9c565b602082019050919050565b60006020820190508181036000830152611e0181611dc5565b9050919050565b600081905092915050565b50565b6000611e23600083611e08565b9150611e2e82611e13565b600082019050919050565b6000611e4482611e16565b9150819050919050565b7f53656e6469743a206661696c656420746f2073656e6420657468657200000000600082015250565b6000611e84601c83611655565b9150611e8f82611e4e565b602082019050919050565b60006020820190508181036000830152611eb381611e77565b9050919050565b6000606082019050611ecf600083018661174f565b611edc602083018561174f565b611ee96040830184611740565b949350505050565b611efa816114ef565b8114611f0557600080fd5b50565b600081519050611f1781611ef1565b92915050565b600060208284031215611f3357611f32611416565b5b6000611f4184828501611f08565b91505092915050565b7f53656e6469743a206661696c656420746f2073656e6420746f6b656e73000000600082015250565b6000611f80601d83611655565b9150611f8b82611f4a565b602082019050919050565b60006020820190508181036000830152611faf81611f73565b9050919050565b6000608082019050611fcb6000830187611740565b611fd8602083018661174f565b611fe56040830185611740565b611ff2606083018461174f565b95945050505050565b7f496e697469616c697a61626c653a20636f6e747261637420697320616c72656160008201527f647920696e697469616c697a6564000000000000000000000000000000000000602082015250565b6000612057602e83611655565b915061206282611ffb565b604082019050919050565b600060208201905081810360008301526120868161204a565b9050919050565b6000819050919050565b6000819050919050565b60006120bc6120b76120b28461208d565b612097565b611525565b9050919050565b6120cc816120a1565b82525050565b60006020820190506120e760008301846120c3565b92915050565b7f4549503731323a20556e696e697469616c697a65640000000000000000000000600082015250565b6000612123601583611655565b915061212e826120ed565b602082019050919050565b6000602082019050818103600083015261215281612116565b9050919050565b7f4e487b7100000000000000000000000000000000000000000000000000000000600052604160045260246000fd5b7f5265656e7472616e637947756172643a207265656e7472616e742063616c6c00600082015250565b60006121be601f83611655565b91506121c982612188565b602082019050919050565b600060208201905081810360008301526121ed816121b1565b9050919050565b7f496e697469616c697a61626c653a20636f6e7472616374206973206e6f74206960008201527f6e697469616c697a696e67000000000000000000000000000000000000000000602082015250565b6000612250602b83611655565b915061225b826121f4565b604082019050919050565b6000602082019050818103600083015261227f81612243565b9050919050565b7f4e487b7100000000000000000000000000000000000000000000000000000000600052602260045260246000fd5b600060028204905060018216806122cd57607f821691505b602082108114156122e1576122e0612286565b5b50919050565b600060a0820190506122fc600083018861175e565b612309602083018761175e565b612316604083018661175e565b6123236060830185611740565b612330608083018461174f565b969550505050505056fea2646970667358221220fbd456915b3d5734a3abbd75ee27fc0fd320a9dd72a27b5bd1e607124177dbc764736f6c63430008080033",
  "devdoc": {
    "kind": "dev",
    "methods": {
      "eip712Domain()": {
        "details": "See {EIP-5267}. _Available since v4.9._"
      }
    },
    "version": 1
  },
  "userdoc": {
    "kind": "user",
    "methods": {},
    "version": 1
  },
  "storageLayout": {
    "storage": [
      {
        "astId": 166,
        "contract": "contracts/Sendit.sol:Sendit",
        "label": "_initialized",
        "offset": 0,
        "slot": "0",
        "type": "t_uint8"
      },
      {
        "astId": 169,
        "contract": "contracts/Sendit.sol:Sendit",
        "label": "_initializing",
        "offset": 1,
        "slot": "0",
        "type": "t_bool"
      },
      {
        "astId": 1475,
        "contract": "contracts/Sendit.sol:Sendit",
        "label": "_hashedName",
        "offset": 0,
        "slot": "1",
        "type": "t_bytes32"
      },
      {
        "astId": 1478,
        "contract": "contracts/Sendit.sol:Sendit",
        "label": "_hashedVersion",
        "offset": 0,
        "slot": "2",
        "type": "t_bytes32"
      },
      {
        "astId": 1480,
        "contract": "contracts/Sendit.sol:Sendit",
        "label": "_name",
        "offset": 0,
        "slot": "3",
        "type": "t_string_storage"
      },
      {
        "astId": 1482,
        "contract": "contracts/Sendit.sol:Sendit",
        "label": "_version",
        "offset": 0,
        "slot": "4",
        "type": "t_string_storage"
      },
      {
        "astId": 1740,
        "contract": "contracts/Sendit.sol:Sendit",
        "label": "__gap",
        "offset": 0,
        "slot": "5",
        "type": "t_array(t_uint256)48_storage"
      },
      {
        "astId": 342,
        "contract": "contracts/Sendit.sol:Sendit",
        "label": "_status",
        "offset": 0,
        "slot": "53",
        "type": "t_uint256"
      },
      {
        "astId": 411,
        "contract": "contracts/Sendit.sol:Sendit",
        "label": "__gap",
        "offset": 0,
        "slot": "54",
        "type": "t_array(t_uint256)49_storage"
      },
      {
        "astId": 2746,
        "contract": "contracts/Sendit.sol:Sendit",
        "label": "nonces",
        "offset": 0,
        "slot": "103",
        "type": "t_mapping(t_address,t_mapping(t_uint256,t_bool))"
      },
      {
        "astId": 2753,
        "contract": "contracts/Sendit.sol:Sendit",
        "label": "requests",
        "offset": 0,
        "slot": "104",
        "type": "t_mapping(t_address,t_mapping(t_uint256,t_struct(Request)2740_storage))"
      }
    ],
    "types": {
      "t_address": {
        "encoding": "inplace",
        "label": "address",
        "numberOfBytes": "20"
      },
      "t_array(t_uint256)48_storage": {
        "base": "t_uint256",
        "encoding": "inplace",
        "label": "uint256[48]",
        "numberOfBytes": "1536"
      },
      "t_array(t_uint256)49_storage": {
        "base": "t_uint256",
        "encoding": "inplace",
        "label": "uint256[49]",
        "numberOfBytes": "1568"
      },
      "t_bool": {
        "encoding": "inplace",
        "label": "bool",
        "numberOfBytes": "1"
      },
      "t_bytes32": {
        "encoding": "inplace",
        "label": "bytes32",
        "numberOfBytes": "32"
      },
      "t_enum(RequestStatus)2726": {
        "encoding": "inplace",
        "label": "enum Sendit.RequestStatus",
        "numberOfBytes": "1"
      },
      "t_mapping(t_address,t_mapping(t_uint256,t_bool))": {
        "encoding": "mapping",
        "key": "t_address",
        "label": "mapping(address => mapping(uint256 => bool))",
        "numberOfBytes": "32",
        "value": "t_mapping(t_uint256,t_bool)"
      },
      "t_mapping(t_address,t_mapping(t_uint256,t_struct(Request)2740_storage))": {
        "encoding": "mapping",
        "key": "t_address",
        "label": "mapping(address => mapping(uint256 => struct Sendit.Request))",
        "numberOfBytes": "32",
        "value": "t_mapping(t_uint256,t_struct(Request)2740_storage)"
      },
      "t_mapping(t_uint256,t_bool)": {
        "encoding": "mapping",
        "key": "t_uint256",
        "label": "mapping(uint256 => bool)",
        "numberOfBytes": "32",
        "value": "t_bool"
      },
      "t_mapping(t_uint256,t_struct(Request)2740_storage)": {
        "encoding": "mapping",
        "key": "t_uint256",
        "label": "mapping(uint256 => struct Sendit.Request)",
        "numberOfBytes": "32",
        "value": "t_struct(Request)2740_storage"
      },
      "t_string_storage": {
        "encoding": "bytes",
        "label": "string",
        "numberOfBytes": "32"
      },
      "t_struct(Request)2740_storage": {
        "encoding": "inplace",
        "label": "struct Sendit.Request",
        "members": [
          {
            "astId": 2728,
            "contract": "contracts/Sendit.sol:Sendit",
            "label": "nonce",
            "offset": 0,
            "slot": "0",
            "type": "t_uint256"
          },
          {
            "astId": 2730,
            "contract": "contracts/Sendit.sol:Sendit",
            "label": "recipient",
            "offset": 0,
            "slot": "1",
            "type": "t_address"
          },
          {
            "astId": 2732,
            "contract": "contracts/Sendit.sol:Sendit",
            "label": "value",
            "offset": 0,
            "slot": "2",
            "type": "t_uint256"
          },
          {
            "astId": 2734,
            "contract": "contracts/Sendit.sol:Sendit",
            "label": "token_address",
            "offset": 0,
            "slot": "3",
            "type": "t_address"
          },
          {
            "astId": 2736,
            "contract": "contracts/Sendit.sol:Sendit",
            "label": "expiry",
            "offset": 0,
            "slot": "4",
            "type": "t_uint256"
          },
          {
            "astId": 2739,
            "contract": "contracts/Sendit.sol:Sendit",
            "label": "status",
            "offset": 0,
            "slot": "5",
            "type": "t_enum(RequestStatus)2726"
          }
        ],
        "numberOfBytes": "192"
      },
      "t_uint256": {
        "encoding": "inplace",
        "label": "uint256",
        "numberOfBytes": "32"
      },
      "t_uint8": {
        "encoding": "inplace",
        "label": "uint8",
        "numberOfBytes": "1"
      }
    }
  }
}